:020000040000FA
:060000007DEF0DF012007F
:020006001200E6
:0600080027EF06F01200D4
:02000E001200DE
:0600180043EF06F01200A8
:02001E000100DF
:0C0020005D1B0000C80100000B00000088
:04002C0052EC05F09D
:10003000FB0EDBCFF3FFDB06F35000090AE0A0EC78
:1000400005F0FA0E0BEC06F0F3E1151CF1E1010EE0
:1000500001D0000E81EF05F052EC05F03B0EE124DB
:1000600002E3E168E652E16E010EDB6A020EDB6A32
:10007000F90EDBCFF6FFFA0EDBCFF7FFFB0EDBCF7F
:10008000F8FF0800F550DF6EDF5002E1A5EF04F045
:10009000250EDF5C02E098EF04F0030EDB6A040E2D
:1000A000DB6A050EDB6A060EDB6A070EDB6ABAEC5A
:1000B00004F02D0EDF5C0CE02B0EDF5C09E0200E5F
:1000C000DF5C06E0230EDF5C03E0300EDF5C1AE14C
:1000D000DF50300A14E0130A0FE0030A0AE00B0AAB
:1000E00005E0060AE4E1030EDB80E1D7030EDB82C4
:1000F000DED7030EDB84DBD7030EDB86D8D7030EF7
:10010000DB88D5D72A0EDF5C1BE1B6EC04F004ECEB
:1001100005F010E0030EDB8006680768130EDBCFE6
:100120000BF0140EDBCF0CF045EC0BF0040E04C00A
:10013000DBFF03D0130EEDEC04F0BAEC04F00BD0AF
:10014000090EDB6A5BEC05F003E0CFEC05F0FAD7B3
:10015000090EEDEC04F0030EDBB0DB982E0EDF5C35
:100160001BE1BAEC04F02A0EDF5C0BE1B6EC04F004
:1001700004EC05F003E1130E3FEC05F0BAEC04F0DB
:100180000BD0090EDB6A5BEC05F003E0CFEC05F069
:10019000FAD7090E3FEC05F0680EDF5C07E1BAEC18
:1001A00004F0680EDF5C1DE1030E18D0740EDF5CF6
:1001B00017E07A0EDF5C14E0480EDF5C06E0540EB8
:1001C000DF5C03E05A0EDF5C02E1020E07D06C0E2A
:1001D000DF5C03E06A0EDF5C04E1010E92EC05F0E7
:1001E000C9DBDF506E0A01E17FD31E0A01E192D123
:1001F000200A01E18FD13F0A01E149D11A0A01E148
:1002000046D10D0A01E143D1200A01E140D13A0A69
:1002100001E13DD1200A01E13AD1260A01E135D1BF
:100220000D0A01E132D11A0A01E1D9D0200A4AE0CF
:10023000300A1FE0460A0EE0250A01E083D3D950B8
:10024000F90FE96EFF0EDA20EA6E010EEE5E000E87
:10025000EE5AEE5AA0EC05F0250EE66E95DB03E1B2
:10026000151C01E169D39CEC05F001E26BD3DB2A9C
:1002700069D3080EDB6A040EDB50010806E2040EA7
:10028000DB0464EC05F0DB508BDB080EDB5009E08F
:10029000030EDB50010B05E172DB01E04DD3080ECC
:1002A000DB6A64DBEFCFDFFF14EC06F003E1151C23
:1002B00001E142D39CEC05F001E3DB2A60DB01E1C4
:1002C00041D33AD3070EDB5002080FE1E0EC05F012
:1002D000030EA7EC05F00E0EEECFDBFF0F0EEECFF8
:1002E000DBFF100EEECFDBFF20D0F70EDBCF17F0D9
:1002F000F80EDBCF18F0020E175E000E185AF70E3C
:1003000017C0DBFFF80E18C0DBFF17C0E9FF18C0ED
:10031000EAFF97EC05F0166A0E0E14C0DBFF0F0E15
:1003200015C0DBFF100E16C0DBFF0E0EDBCFE6FFA5
:100330000F0EDBCFE6FF100EDBCFE6FFE4EC0CF098
:10034000E552E552E552130E05C0DBFF140E06C060
:10035000DBFF060EDB5005E0130EDBEC05F001E2DF
:100360006ADBFFEC05F002E2130E37DBC2EC05F0AE
:1003700006E0040EDBEC05F002E2050E2EDB030EB8
:10038000DBB005D0FCDA01E0D7D2080EDB6A090E3B
:10039000DB6A0E0EDBCFF6FF0F0EDBCFF7FF100E82
:1003A000DBCFF8FF0800F550DF6EDF5014E005ECFE
:1003B00006F011E214EC06F003E1151C01E1BCD2D9
:1003C000BBDB01E3DB2A090EDB2AD9500E0FE96EF5
:1003D000000ECBDBE7D7D3DA01E1B4D2ADD2C6DA77
:1003E000110EEECFDBFF120EEDCFDBFF110EDBCFD8
:1003F000E6FF120EDBCFE6FFD6EC0CF0E552E5523D
:10040000130EF3CFDBFF140EF4CFDBFF060EDB5031
:1004100004E0130ED0DB01E20EDBFFEC05F002E29C
:10042000130EDBDAAFDB05E0040EC5DB02E2050EDE
:10043000D4DA030EDBB005D0A2DA01E07DD2080EDB
:10044000DB6A090EDB6A110EDBCFE9FF120EDBCF90
:10045000EAFFEFCFDFFFDF5014E0D7DB12E2E4DB8F
:1004600003E1151C01E168D267DB01E3DB2A090E19
:10047000DB2A110EDB2ADBCFE9FF120EE8E3DB2AD1
:10048000E6D77DDA01E15ED257D2030EDB8E070E8E
:10049000DB0410E195DB040E5ADB0A0EEECFDBFF26
:1004A0000B0EEECFDBFF0C0EEECFDBFF0D0EEECF13
:1004B000DBFF6CD0070EDB5003082CE1030EDBAE34
:1004C0000DD0B2DA020E76DAEFCF14F0156A166AA2
:1004D000176A14AE39D01568166835D0F70EDBCF21
:1004E00015F0F80EDBCF16F0020E155E000E165A50
:1004F000F70E15C0DBFFF80E16C0DBFF15C0E9FFD5
:1005000016C0EAFFEFCF14F00A0E14C0DBFF0B0E8B
:10051000DB6A38D0070EDB50020809E1030EDBAEC0
:1005200004D059DB16AE10D00ED055DB0DD0030E23
:10053000DBAE12D079DA020E3DDAF9DA166A176A02
:1005400015AE02D016681768E2DA0C0E16C0DBFF93
:100550000D0E17C0DBFF1AD0F70EDBCF16F0F80E2A
:10056000DBCF17F0020E165E000E175AF70E16C0FC
:10057000DBFFF80E17C0DBFF16C0E9FF17C0EAFF6C
:10058000D6DAC5DA0C0EDB6A0D0EDB6A060EDB501E
:1005900005E1010EF36E050EF3CFDBFF150EDB6AEE
:1005A000160EDB6AD950370F146E000EDA20156E66
:1005B000390E14C0DBFF3A0E15C0DBFF380EDB6AC4
:1005C000080EDB6A0A0EAEDADF50780A12E0200A63
:1005D00010E0280A0CE0200A0AE03F0A06E00D0AB3
:1005E00002E0200A08E1020E05D0080E03D0080E32
:1005F000DF26100E97DA030EDBBE02D0DB92DB940F
:10060000DB50800B24E08ADAD890030EEB50000A0E
:1006100008E6000EEE5C000EEE58000EEE58000EDE
:10062000EE5815E213DA09680A680B680C689EEC4C
:100630000CF00A0E00C0DBFF0B0E01C0DBFF0C0E3E
:1006400002C0DBFF0D0E03C0DBFF2D0E08D0030E32
:10065000DBA202D02B0E03D0DBA408D0200EF36E59
:10066000170EF3CFDBFF150EDB2A02D0170EDB6A65
:10067000050EDB5003E1B7D901E189D04C0E146EB1
:100680001B0E156E000E166E070EDBCF17F0186AE4
:10069000196A1A6A17C009F018C00AF019C00BF0DD
:1006A0001AC00CF0D3D909EC0DF014500024F36EED
:1006B00015500120F46E16500220F86EF4CFF7FFAB
:1006C000F3CFF6FF0800090EF5CFDBFF580EDF5C15
:1006D0000FE1610EF36E090E7BD90AE3200E146E52
:1006E000090EDBCFE7FF1450E75E090EE7CFDBFF13
:1006F000070EDBCF14F0156A166A176A0FDA14C0FA
:1007000009F015C00AF016C00BF017C00CF0EECFC0
:1007100004F0EECF05F0EECF06F0EFCF07F009ECD6
:100720000DF007C0EDFF06C0EDFF05C0EDFF04C0F2
:10073000EFFF390EDBCFE9FFDB063A0EDBCFEAFF36
:1007400001E2DB06090EDBCFEFFF150EDB2A4BD9EA
:1007500095E1030EDBA61DD06F0EDF5C06E1C1D96B
:1007600018E3150EDB285BDA14D0780EDF5C09E0A5
:10077000580EDF5C06E0620EDF5C03E0420EDF5CD9
:1007800008E1020EF36E160EF3CFDBFF02D0150E5A
:10079000DB6A030EDB50100B0EE0040EDBCF14F00F
:1007A000050EDB50D880145406E2060EDB5003E140
:1007B000040EDB5034DA95D90AE2050EDBCFE7FFF1
:1007C000150EDB50E75E050EE7CFDBFF02D0050E0E
:1007D000DB6A040EDBCF14F0160E45D9D880145412
:1007E00014E2160EDBCFE6FF150EDBCFE6FF040E9C
:1007F000DBCFE6FF050EDB50E552E75CE552D88023
:10080000E754E552D880E7545FD9030EDB50010B63
:100810000BE1080EDB5008E0B2D801E08DD0080EE5
:10082000DB50BED8080EDB6A170EDB5007E088D914
:10083000170EF1D903E1151C01E17ED0160EDB5035
:1008400016E07ED9300EE66E9FD802E1151C74E0EA
:1008500077D9DFCFE6FF5CEC0CF0E552E552E552CC
:10086000F4CF15F00001F31C02E1151C65E0050E44
:10087000DBCF14F0160EDB50D880145409E2050EBD
:10088000DBCFE7FF160EDB50E75E050EE7CFDBFFA1
:10089000300EE66E050ECBD94FE1390EDB2ADBCFE9
:1008A000E9FF3A0E01E3DB2ADBCFEAFF090EEFCFC7
:1008B000DBFFDB500EE044D9090EADD902E1151C77
:1008C0003BE0390EDB2ADBCFE9FF3A0EEDE3DB2A12
:1008D000EBD755D831E1160EDBCFE6FF080EC3D8B3
:1008E000E552E7245DD82ED0070EDB50030A1CE04A
:1008F000010A14E0030A07E07BD9DBCFEEFF020E0A
:10090000DBCFEDFF1FD0F5D8196A17AE02D01868FB
:1009100019682CD8BCD819C0EEFF14D0EAD817BE7D
:10092000186824D8B4D80ED063D9DBCFEFFF0AD033
:100930007BD905E1151C03E1F368F46810D0FCD8FD
:1009400001E3DB2A79D941EF00F0010EDBCF14F08F
:10095000020EDBCF15F014C0F3FF15C0F4FF3B0E01
:10096000E15C02E2E16AE552E16ECBD029D9020EE8
:10097000A7EF05F061D90800F550DF6E1200200ED8
:10098000E66E080E17EF06F05CEC0CF0E552E5524F
:10099000E552F3CF14F0F4CF15F00001F31C120070
:1009A000146E156AD950010F4DD91450EE2615500A
:1009B000ED221200185E000E195AF70E18C0DBFF68
:1009C000F80E19C0DBFF18C0E9FF19C0EAFF1200DA
:1009D000DBCFF4FFF350F45C1200DB50E76E040E43
:1009E000E7CFDBFF12000A0EDBCF14F00B0EDBCFDC
:1009F00015F00C0EDBCF16F00D0EDBCF17F01450F8
:100A00001510161017101200130EEECFDBFF140E88
:100A1000EDCFDBFF130EDBCF14F0140EDBCF15F0A0
:100A20000001800E15141200F70EDBCF18F0F80E3F
:100A3000DBCF19F01200050EDB50E66ED950130F14
:100A400001D9E552E750EE6EED6A12000A0EDBCFD7
:100A500004F00B0EDBCF05F00C0EDBCF06F00D0E15
:100A6000DBCF07F01200DBCFE6FF150EDBCFE6FF92
:100A7000050EDB50E552E724E552E7241200DB5077
:100A8000CED8010EF36E060EF3CFDBFF1200EE5050
:100A9000EFCFEAFFE96E16C0EEFF17C0EEFF18C0F9
:100AA000EEFF1200D9CFE6FFDACFE6FFE1CFD9FFA4
:100AB000E2CFDAFF1200DFCFE6FFE66A5BEC0DF073
:100AC000E552E552F3501200E76E080EE7CFDBFF68
:100AD0001200EECF14F0EECF15F0EFCF16F0176A3C
:100AE0001200050EDBCF14F0150EDB50D880145425
:100AF0001200010EDBCF16F0020EDBCF17F0186AE2
:100B00001200E552E5CFDAFFE7CFD9FF12000A0E57
:100B100014C0DBFF0B0E15C0DBFF1200D9500A0F0B
:100B200022EF06F0F36E070EF3CFDBFF1200EECFDD
:100B300014F0EFCF15F01200010EDB2A020E1200A6
:100B4000FC0EDBCFE6FFFD0EDBCFE6FF1200145EEE
:100B5000000E155AF70E14C0DBFFF80E15C0DBFFB0
:100B600014C0E9FF15C0EAFF1200DA20EA6EEF2A8E
:100B7000EECFF6FF000EEF22EECFF7FFEF22EECF23
:100B8000F8FF1200040EDBCFE6FF130EDB50E55238
:100B9000E75C9ADFDB5004DF060EDB501200090E23
:100BA000DB500A0DF350DF24D00FE76E090EE7CFBC
:100BB000DBFFBAEF04F0DB50F36E050EE8EF04F054
:100BC000F70EDBCF14F0F80EDBCF15F01200DFCFFD
:100BD000E6FFC4EF04F028DF030EECDE69EF05F05A
:100BE00016EC00F0E552E552E552E552000912001C
:100BF000BDDEEE50EFCFEAFFE96E010E1200130EDC
:100C0000DB50F36E040EE8EF04F0040EDB50F36EDD
:100C1000090EE8EF04F0DBCFE6FFC4EF04F0E76E67
:100C2000050EE7CFDBFF12008BDFE7EF05F0DBCF30
:100C3000E6FF86DFF0EF05F0D950F90FE96EFF0E01
:0E0C4000B5EF05F0E96E000EDA20EA6E120044
:020C4E00DACFFB
:100C5000E4FFE652F2A013D08150800B02E0000EB8
:100C600001D0010E1F6E8150400B02E0000E01D03A
:100C7000010E1F1003E0F296F28AF28CF290E55218
:100C8000E5CFDAFF1100D8CFE4FFE0CFE4FFE46E58
:100C9000DACFE4FFE2CFDAFFE9CFE4FFEACFE4FF07
:100CA000F6CFE4FFF7CFE4FFF5CFE4FFF3CFE4FFA7
:100CB000F4CFE4FFFACFE4FF00EE00F0140EE804F6
:100CC00003E3EECFE4FFFBD700EE14F0070EE804D9
:100CD00003E3EECFE4FFFBD7E652D9CFE6FFE1CF47
:100CE000D9FF040EE1269EBA2EDAF2A4E2D0F294E5
:100CF0008150400B400A01E0010E1B6E0101CE51F4
:100D0000E8241B10CE6F8150800B800A01E0010E99
:100D10001B6ECF51E8241B10CF6F7F0ECF5D02E01A
:100D2000000E01D0010E1B6E7F0ECE5D02E0000EA4
:100D300001D0010E1B1024E0CA6BCB6BCC6BCD6BCA
:100D40008950200B02E0000E01D0010E1B6E89506D
:100D5000100B02E0000E01D0010E1B140DE08150BB
:100D6000400B02E0899801D089888150800B02E015
:100D7000899A06D0898A04D08998899A030ED26FFD
:100D8000FF0ECF5D02E0000E01D0010E1B6EFF0EC4
:100D9000CE5D02E0000E01D0010E1B1018E0CAC1AA
:100DA00005F0CBC106F0CCC107F0CDC108F00A6A4E
:100DB0000B6A800E0C6E3F0E0D6ECBEC09F005C079
:100DC000CAF106C0CBF107C0CCF108C0CDF1FE0ED0
:100DD0000101CF5D02E0000E01D0010E1B6EFE0E80
:100DE000CE5D02E0000E01D0010E1B1062E08150CA
:100DF000816EF29AF28CF290F2867A0EF36E020E07
:100E0000F3CFDBFF030EDB6A020EDBCF06F0030E2F
:100E1000DBCF07F0B7EC09F005C01BF006C01CF0F3
:100E200007C01DF008C01EF005C00AF006C00BF098
:100E300007C00CF008C00DF0CAC105F0CBC106F028
:100E4000CCC107F0CDC108F061EC0AF0010A2FE136
:100E5000DE6ADD6ADECF1BF0DDCF1CF001011C5025
:100E6000D119E8AE02D0D13504D0D0511B5CD1519C
:100E70001C5815E28950200B02E0000E01D0010E33
:100E80001B6E8950100B02E0000E01D0010E1B14E6
:100E900010E153D9DF2A010EDDE3DB2ADBD789A875
:100EA00002D0010ED26F89AA02D0020ED26F8998A9
:100EB000899A040EE15C02E2E16AE552E16EE552D4
:100EC000E7CFD9FFE55200EE1AF0070EE80403E37E
:100ED000E5CFEDFFFBD700EE13F0140EE80403E3BB
:100EE000E5CFEDFFFBD7E5CFFAFFE5CFF4FFE5CF88
:100EF000F3FFE5CFF5FFE5CFF7FFE5CFF6FFE5CF51
:100F0000EAFFE5CFE9FFE5CFDAFFE550E5CFE0FF07
:100F1000E5CFD8FF100089D8A9D8B7D889860300B3
:100F2000FED71200810E0101035D09E10851010A9B
:100F300001E0120008C1E6FF03D8E55212001200DA
:100F4000D9CFE6FFE1CFD9FF020EE1260101095119
:100F5000030A5CE0010A35E0030A0EE0010A5BE1E6
:100F600005C1E6FF04C1E6FFFE0EDBCFE6FF3FD979
:100F7000E552E552E5524FD0899A140EE66E2DECFB
:100F80000DF0E55289880101030ED26FDE6ADD6A39
:100F9000DECF14F0DDCF15F001011550D119E8AE08
:100FA00002D0D13504D0D051145CD151155806E28D
:100FB000C4D8DF2A010EECE3DB2AEAD78998010EB8
:100FC00029D08998140EE66E2DEC0DF0E552898A31
:100FD0000101030ED26FDE6ADD6ADECF14F0DDCFD1
:100FE00015F001011550D119E8AE02D0D13504D069
:100FF000D051145CD151155806E29FD8DF2A010E5A
:10100000ECE3DB2AEAD7899A020E04D08998899A00
:101010000101030ED26F020EE15C02E2E16AE552C9
:10102000E16EE552E7CFD9FF1200D388D38AD38C83
:10103000D38E0F0EC16E806A816A826A926AC00E78
:10104000936E800E946EF19E81CFCEF10101CE6B36
:10105000F28EF28CD08EF290F180F286D59AD596EF
:10106000D580D592D584F194F29A12000C0EE66EDA
:10107000E66A6C0EE66E17EC0CF0E552E552E552AE
:101080009F9A9D8A100E9E6E120057D84A0E146EBB
:101090001B0E156E166A14C0E6FFE66E16C0E6FF5C
:1010A000640EE66E010EE66E72EC0BF0176E050E26
:1010B000E15E175011D941D8460E146E1B0E156E05
:1010C000166A14C0E6FFE66E16C0E6FF640EE66E12
:1010D000010EE66E72EC0BF0176E050EE15E175016
:1010E000FBD82BD83F0E146E1B0E156E166A14C05B
:1010F000E6FFE66E16C0E6FF640EE66E010EE66ED3
:1011000072EC0BF0176E050EE15E1750E5D8320E4B
:10111000146E1B0E156E166A14C0E6FFE66E16C03E
:10112000E6FF640EE66E010EE66E72EC0BF0176ED3
:10113000050EE15E17506CEF09F0C80EE66E2DEC5F
:101140000DF0E5521200D9CFE6FFE1CFD9FF030E33
:10115000E1269E50200B41E09D50200B3EE0ABA2CB
:1011600002D0AB98AB88AE50DF6E7E0EDF5C03E141
:101170000101C86BC96B000E0101C825E96E010EA3
:10118000C921EA6EDFCFEFFF020EC9AF02D0D890BF
:1011900003D0C85D000EC9591CE301C116F0176ADF
:1011A00001C117F0166A02C118F0196A18BE196851
:1011B00016501824146E17501920156E020E14269E
:1011C000000E15221450C81904E11550C91901E187
:1011D000A9DE0101C82B000EC923030EE15C02E267
:1011E000E16AE552E16EE552E7CFD9FF1200D9CFAF
:1011F000E6FFE1CFD9FF040EE12601017E0E646F08
:10120000656B070E666F010E676F686BFD0EDBCFB7
:1012100069F1FC0EDBCF6AF1010E6B6FFE0EDBCFC6
:101220006CF1D2C16DF114686751682569256A2592
:101230006B256C25145C6E6F65C116F0176A65C16D
:1012400017F0166A66C118F0196A18BE19681650A8
:101250001824146E17501920156E040E1426000E53
:101260001522020E14C0DBFF030E15C0DBFFDE6A81
:10127000DD6ADECF14F0DDCF15F0020EDBCF16F005
:10128000030EDBCF17F015501718E8AE02D0173455
:1012900004D01650145C1750155814E2ACA2FED7B7
:1012A000DECFE9FFDDCFEAFF640EE926010EEA2278
:1012B000EF50E66E44EC0DF0E552DF2A010ED9E363
:1012C000DB2AD7D7040EE15C02E2E16AE552E16E67
:1012D000E552E7CFD9FF1200D9CFE6FFE1CFD9FF22
:1012E000040EE126640EE66E010EE66ED6EC0CF0FE
:1012F000E552E552020EF3CFDBFF030EF4CFDBFF26
:10130000DE6ADD6ADECF14F0DDCF15F0020EDBCF32
:1013100016F0030EDBCF17F015501718E8AE02D009
:10132000173404D01650145C1750155814E2ACA2B0
:10133000FED7DECFE9FFDDCFEAFF640EE926010E1E
:10134000EA22EF50E66E44EC0DF0E552DF2A010E82
:10135000D9E3DB2AD7D7040EE15C02E2E16AE55269
:0A136000E16EE552E7CFD9FF12005D
:06136A000F9E08D00F9E4B
:1013700007AE05D0066C071EE86A07220F8E07C06D
:1013800001F006C000F0136A126A8E0E026E036A44
:10139000DBEF0AF00D7E0F6A17EC0BF02FEC0BF071
:1013A0000FB6BFEF0AF00FA20AD00FAA03D00FBEEC
:1013B000BFEF0AF00FA4CBEF0AF0C8EF0AF00FAAB4
:1013C00005D00FACCBEF0AF0C8EF0AF00FA00AD09F
:1013D0000FA808D00FBE04D00FA402D0D4EF0AF09B
:1013E000D8EF0AF0126A036A0D50085C116E10E320
:1013F00005C013F006C000F007C001F008C010F0EF
:101400000AC005F00BC006F00CC007F00F3A09D077
:101410000AC013F00BC000F00CC001F00DC010F0BA
:10142000116C0F9E0FBC0F8E10C002F00FB007EFB3
:101430000BF01A0E116007EF0BF0026A086A0FA496
:1014400008D0056C061E071E081EE86A0622072241
:1014500008220FAC08D0136C001E011E021EE86AA1
:10146000002201220222046A115207E008340732E6
:10147000063205320432112EF9D7055013260650D4
:101480000022075001220850022204C012F00F9ED1
:1014900002AE0BD0126C131E001E011E021EE86A63
:1014A00013220022012202220F8E02A006D0D88031
:1014B0000132003213321232102A10C002F0DBEF78
:1014C0000AF06AEC0AF00FB6000C0FB0000C0FA483
:1014D000000C010C0F6A17EC0BF02FEC0BF00FB6A1
:1014E00012000FAE08D00FA004D00FA802D00F80BA
:1014F00012000F9012000D50085C0BE10C50075CBD
:1015000008E10B50065C05E10A50055C02E10F8022
:101510001200D8A002D00F8E10D008500DC008F0D5
:101520000D6E07500CC007F00C6E06500BC006F095
:101530000B6E05500AC005F00A6E0D50085C10E0F5
:10154000FF0F09E00F900FB403D00FAE0F8412000D
:101550000FAE0F9412000D2AD8900C320B320A32C3
:101560000A50055E0B50065A0C50075A07BEEAD7C0
:10157000D890053606360736082EF8D7C8D77F0E1E
:10158000086EFF0E076E066E056E12007F0E0FBE10
:10159000FF0E086E02D07F0E086E800E076E066A80
:1015A000056AF3D70FAE04D0800E086E076AF7D72E
:1015B000086A076AF4D70150001013101210F8E0FF
:1015C00003BEF0D701BE0CD002500310EBE0D89060
:1015D00012361336003601360206D8A00306F2D7BB
:1015E0000350D4E10228D2E012AE11D07F0E1214C3
:1015F00002E113A00CD0132AE86A0022012207E3BB
:10160000D880013200321332022A0228BFE0025091
:10161000C9E013C005F000C006F00134076E0230C7
:10162000086E0732089E0FBE088EC5EF0AF0073617
:10163000083602E30F840F7E06E10F80086A076A0E
:10164000066A056A1200082803E0D88007321200F3
:10165000D890073202E10F8212000F8612000C367A
:101660000D3602E30F8C0F7E06E10F880D6A0C6ABF
:101670000B6A0A6A12000D2803E0D8800C321200AF
:10168000D8900C32EAE10F8A120007C013F006C0AE
:1016900012F006500B02F4CF05F0F3CF04F0075020
:1016A0000C02F4CF07F0F3CF06F00B02F35005263F
:1016B000F4500622E86A072212500C02F350052665
:1016C000F4500622E86A07220CAE6BEF0BF01250C2
:1016D000065E1350075A13AE000C0B50065E0C50FA
:0416E000075A000C99
:0C16E400D9CFE6FFDACFE6FFE1CFD9FF57
:1016F000E2CFDAFFE652E652E652E652D950F90F4F
:10170000146EFF0EDA20156E020E14C0DBFF030EFE
:1017100015C0DBFF020EDBCFE6FF030EDBCFE6FFDB
:10172000F90EDBCFE6FFFA0EDBCFE6FFFB0EDBCFD9
:10173000E6FFD950FC0FE66EFF0EDA20E66E2CECC9
:1017400000F0146E070EE15C02E2E16AE552E16E20
:101750001450F3CFDEFFF4CFDDFFFC0EDBCFE9FF4B
:10176000FD0EDBCFEAFFEF6ADECF14F0DDCF15F020
:1017700014C0F3FF15C0F4FF040EE15C02E2E16A5D
:10178000E552E16EE552E5CFDAFFE7CFD9FF12006F
:101790001E0EF66E000EF76E000EF86E01010900C7
:1017A000F550D86F0900F550D96F03E1D86701D023
:1017B0003DD00900F550D36F0900F550D46F0900F2
:1017C000F550D56F09000900F550E96E0900F55094
:1017D000EA6E090009000900F550D66F0900F550BE
:1017E000D76F09000900F6CFDAF1F7CFDBF1F8CFB8
:1017F000DCF1D3C1F6FFD4C1F7FFD5C1F8FF010179
:10180000D65302E1D75307E00900F550EE6ED60734
:10181000F8E2D707F9D7DAC1F6FFDBC1F7FFDCC181
:0E182000F8FF0101D807000ED95BBFD71200F8
:02182E00D9CF10
:10183000E6FFDACFE6FFE1CFD9FFE2CFDAFFAC6A0D
:10184000AB6AFD0EDBB0AC88DBA202D0AC8CAB8CFB
:10185000DBB4AC8EDBA602D0AB8801D0AB8ADBB8A0
:10186000AC849E98DBBAAB86DBAC02D09D8A01D0FB
:101870009D9A9E9ADBAE02D09D8801D09D98FB0E6A
:10188000DB50AF6EFB0EFC0EDBCF15F015C014F075
:10189000156A1450B06EAC8AAB8E949C948EAC508A
:1018A000100B04E0AC50800B01E1948CE552E5CFC5
:0818B000DAFFE7CFD9FF1200B7
:0818B800D9CFE6FFDACFE6FF0D
:1018C000E1CFD9FFE2CFDAFFFB0EDBCF14F0FC0E45
:1018D000DBCF15F00001800E15141AE1FB0EDBCFF3
:1018E000E9FFFC0EDBCFEAFFEECFF3FFEDCFF4FF15
:1018F000EE2A000EEF22F3CFE9FFF4CFEAFFFD0E50
:10190000DBCFEFFFEF50156AF36E15C0F4FF10D078
:10191000FB0EDB50FE0806E1FD0EDBCFE6FF8BEC95
:101920000DF005D0FD0EDBCFE6FF03EC00F0E55235
:0C193000E552E5CFDAFFE7CFD9FF120047
:04193C000450090248
:10194000F3CF00F0F4CF01F00A02F3500126000EAD
:10195000F420026E04500B02F3500226000EF42015
:10196000036E04500C02F350032605500902F35095
:101970000126F4500222000E032205500A02F35001
:101980000226F450032205500B02F35003260650A2
:101990000902F3500226F450032206500A02F350C3
:0C19A000032607500902F3500326120032
:0419AC00FE0EE3CF79
:1019B000E9FFFF0EE3CFEAFFF36AF46AEE5203E0B9
:1019C000F34AF42AFBD71200FF0EE3CFF8FFE552EB
:1019D000FF0EE3CFF7FFE552FF0EE3CFF6FFE55230
:1019E000E66AE66AE66A0900F55209E0FD0EE32AB6
:1019F00005E1FE0EE32A02E1FF0EE32AF4D7FD0E15
:101A0000E3CF05F0FE0EE3CF06F0FF0EE3CF07F0C5
:021A10001200C2
:0E1A1200036A026A016A006A200EE76ED8902D
:101A200004360536063607360036013602360336EA
:101A30000950005C0A5001580B5002580C500358D2
:101A400009E30950005E0A50015A0B50025A0C502B
:0A1A5000035A042AE72EE4D712001F
:061A5A00FF0EE350216EB7
:101A6000EF0E01D0F30EE76EE72E34EF0DF00C0E03
:101A7000206EE76AE72E3AEF0DF0202E39EF0DF0D9
:081A8000212E32EF0DF01200DF
:081A8800D9CFE6FFDACFE6FF3B
:101A9000E1CFD9FFE2CFDAFFACAC04D0AC900101CA
:101AA000DDB3AC80FD0EDB50AD6EE552E5CFDAFF65
:061AB000E7CFD9FF120090
:0A1AB600F36AF46AFF0EE124E96E02
:101AC000FF0EE220EA6EED6607D02F0EEF6404D021
:0A1AD0003A0EEF6001D0F32A120075
:061ADA00000EF36E00EEA9
:101AE00000F0080E01D81200EA6002D0EE6AFCD7BE
:0A1AF000F350E9601200EE6AFCD723
:061AFA0013EE00F023EEE4
:101B000000F0F86A0F9CC8EC0BF007EC00F08BECCF
:061B100007F0FBD71200F4
:0A1B1600FF0EE350ACBA04D0AF6A32
:101B2000AB8EAC8A949CACA2FED7AD6EF36EF46A19
:021B30001200A1
:0E1B320041544150312C57522C434E0D00416E
:0C1B4000544D59350D002B2B2B00580084
:041B4C0030313233CF
:0D1B500034353637383961626364656600EC
:031B5D0000000085
:081B600000000000000A000073
:020000040030CA
:0100000024DB
:0100010008F6
:0100020038C5
:010003001EDE
:010005008179
:010006008178
:010008000FE8
:01000900C036
:01000A000FE6
:01000B00E014
:01000C000FE4
:01000D0040B2
:00000001FF
