:020000040000FA
:060000006FEF15F0120085
:020006001200E6
:0600080016EF00F01200EB
:02000E001200DE
:0600180078EF00F0120079
:02001E000100DF
:0C0020003D2B0000D70100001400000080
:04002C00DACFE4FF44
:10003000E2CFDAFFE9CFE4FFEACFE4FFF6CFE4FF57
:10004000F7CFE4FFF5CFE4FFF3CFE4FFF4CFE4FF15
:10005000FACFE4FF00EE15F0140EE80403E3EECF50
:10006000E4FFFBD700EE00F0150EE80403E3EECF4B
:10007000E4FFFBD7E6529EAA02D041EC07F0F2A0C3
:1000800013D08150800B02E0000E01D0010E3A6EB9
:100090008150400B02E0000E01D0010E3A1003E047
:1000A000F296CD80F28CF290E55200EE14F0150E2F
:1000B000E80403E3E5CFEDFFFBD700EE28F0140ED4
:1000C000E80403E3E5CFEDFFFBD7E5CFFAFFE5CF8B
:1000D000F4FFE5CFF3FFE5CFF5FFE5CFF7FFE5CF81
:1000E000F6FFE5CFEAFFE5CFE9FFE5CFDAFF110044
:1000F000D8CFE4FFE0CFE4FFE46EDACFE4FFE2CF55
:10010000DAFFE9CFE4FFEACFE4FFF6CFE4FFF7CF71
:10011000E4FFF5CFE4FFF3CFE4FFF4CFE4FFFACF41
:10012000E4FF00EE15F0140EE80403E3EECFE4FF65
:10013000FBD700EE00F0150EE80403E3EECFE4FF7A
:10014000FBD7E652D9CFE6FFE1CFD9FF020EE12679
:100150009EA020D29E90C10ECF6E800ECE6E81509A
:10016000400B400A01E0010E296E0101E551E8242F
:100170002910E56F8150800B800A01E0010E296E85
:10018000E651E8242910E66F7F0EE65D02E0000EDE
:1001900001D0010E296E7F0EE55D02E0000E01D058
:1001A000010E291001E1B4D0F28CF290F286E16BDD
:1001B000E26BE36BE46B8950200B02E0000E01D090
:1001C000010E296E8950100B02E0000E01D0010EC5
:1001D000291415E081BC09D0010EE66E640EE66EAE
:1001E000E66A7EDBE552E552E55281BE91D0010E12
:1001F000E66E000EE66EE66A73DBE55287D089A8EC
:100200003FD0010EE66EE66ADAEC14F0E552E552F4
:10021000316E1C6E38EC10F01AC02DF01BC02EF0A1
:100220001CC02FF01DC030F01AC01FF01BC020F002
:100230001CC021F01DC022F0DDC11AF0DEC11BF090
:10024000DFC11CF0E0C11DF0F5EC10F01AC029F080
:100250001BC02AF01CC02BF01DC02CF01F6A206AA6
:10026000C80E216E420E226E48EC11F0B5EC11F072
:100270000101D7511B24D76FD8511C20D86F3CD017
:10028000020EE66EE66ADAEC14F0E552E552316EE3
:100290001C6E38EC10F01AC02DF01BC02EF01CC0E4
:1002A0002FF01DC030F01AC01FF01BC020F01CC082
:1002B00021F01DC022F0DDC11AF0DEC11BF0DFC14C
:1002C0001CF0E0C11DF0F5EC10F01AC029F01BC0C5
:1002D0002AF01CC02BF01DC02CF01F6A206AC80E2B
:1002E000216E420E226E48EC11F0B5EC11F01B505D
:1002F0000101D75F1C50D85B8998899A53EC08F0AC
:10030000D7C1E6FF010EE66E96EC07F0E552E55226
:10031000FF0E0101E65D02E0000E01D0010E296E24
:10032000FF0EE55D02E0000E01D0010E291018E07D
:10033000E1C11AF0E2C11BF0E3C11CF0E4C11DF001
:100340001F6A206A800E216E3F0E226E5FEC10F055
:100350001AC0E1F11BC0E2F11CC0E3F11DC0E4F1E1
:10036000FE0E0101E65D02E0000E01D0010E296ED5
:10037000FE0EE55D02E0000E01D0010E291001E144
:1003800009D1CD90F28CF290F2867D0EDE6EDD6AA0
:10039000000EDFCF1BF0010EDBCF1CF04BEC10F09A
:1003A0001AC029F01BC02AF01CC02BF01DC02CF075
:1003B0001AC01FF01BC020F01CC021F01DC022F08D
:1003C000E1C11AF0E2C11BF0E3C11CF0E4C11DF071
:1003D000E4EC11F0010A01E0DDD089A869D06F0ECC
:1003E0001F6E120E206E030E216E410E226EE1C1B1
:1003F0001AF0E2C11BF0E3C11CF0E4C11DF048ECAF
:1004000011F01AC031F01BC032F01CC033F01DC017
:1004100034F01F6A206A7A0E216E440E226EF5ECCB
:1004200010F01AC02DF01BC02EF01CC02FF01DC004
:1004300030F0010EE66EE66ADAEC14F0E552E552B1
:10044000396E1C6E38EC10F01AC035F01BC036F057
:100450001CC037F01DC038F01AC01FF01BC020F0C0
:100460001CC021F01DC022F02DC01AF02EC01BF0C0
:100470002FC01CF030C01DF0F5EC10F01AC029F0B0
:100480001BC02AF01CC02BF01DC02CF01F6A206A74
:10049000C80E216E420E226E48EC11F0B5EC11F040
:1004A0000101D7511B24D76FD8511C20D86F66D0BB
:1004B0006F0E1F6E120E206E030E216E410E226E05
:1004C000E1C11AF0E2C11BF0E3C11CF0E4C11DF070
:1004D00048EC11F01AC031F01BC032F01CC033F0F0
:1004E0001DC034F01F6A206A7A0E216E440E226EFF
:1004F000F5EC10F01AC02DF01BC02EF01CC02FF030
:100500001DC030F0020EE66EE66ADAEC14F0E55239
:10051000E552396E1C6E38EC10F01AC035F01BC075
:1005200036F01CC037F01DC038F01AC01FF01BC0D9
:1005300020F01CC021F01DC022F02DC01AF02EC0EA
:100540001BF02FC01CF030C01DF0F5EC10F01AC0ED
:1005500029F01BC02AF01CC02BF01DC02CF01F6A14
:10056000206AC80E216E420E226E48EC11F0B5ECE6
:1005700011F01B500101D75F1C50D85B8998899AF4
:1005800053EC08F0D7C1E6FF010EE66E96EC07F0DB
:10059000E552E552F2A437D0F2940B0ED76EDC0E82
:1005A000D66E1F6A206A800E216E3F0E226EE7C152
:1005B0001AF0E8C11BF0E9C11CF0EAC11DF0EDEC36
:1005C00011F0010A19E1E7C11AF0E8C11BF0E9C115
:1005D0001CF0EAC11DF01F6A206A800E216E3F0EDA
:1005E000226E5FEC10F01AC0E7F11BC0E8F11CC0EE
:1005F000E9F11DC0EAF107D00101E76BE86BE96B97
:10060000EA6BDDEC08F0020EE15C02E2E16AE55221
:10061000E16EE552E7CFD9FFE55200EE14F0150E7A
:10062000E80403E3E5CFEDFFFBD700EE28F0140E5E
:10063000E80403E3E5CFEDFFFBD7E5CFFAFFE5CF15
:10064000F4FFE5CFF3FFE5CFF5FFE5CFF7FFE5CF0B
:10065000F6FFE5CFEAFFE5CFE9FFE5CFDAFFE550AA
:10066000E5CFE0FFE5CFD8FF10005CDB86DB8982B9
:10067000010EE66EE66ADAEC14F0E552E552FF0888
:100680000AE10E0EE66E010EE66EE66A50EC14F01C
:10069000E552E552E552020EE66EE66ADAEC14F037
:1006A000E552E552FF080AE10E0EE66E020EE66E16
:1006B000E66A50EC14F0E552E552E552030EE66EA0
:1006C000E66ADAEC14F0E552E552FF080AE1020EA0
:1006D000E66E030EE66EE66A50EC14F0E552E55263
:1006E000E55259DB0300FED71200810E0101035DC4
:1006F00014E104C1D9F105C1DAF108C100F0016AC1
:1007000000BE0168010E001801E1015001E0120075
:1007100008C1E6FF03D8E55212001200D9CFE6FF68
:10072000E1CFD9FFF28E09C100F0016A00BE016875
:10073000040E001801E1015001E1BBD0030E0018C6
:1007400001E1015001E1A6D0020E001801E10150C3
:100750001AE0010E001801E1015007E0005001E02D
:10076000BBD0015001E0B8D08FD0FE0EDBCFE6FF4A
:100770000AC100F0016A00BE016800C0E6FF01C0C6
:10078000E6FFAED894D089A83FD0010EE66EE66AA7
:10079000DAEC14F0E552E552086E1C6E38EC10F0FD
:1007A0001AC004F01BC005F01CC006F01DC007F005
:1007B0001AC01FF01BC020F01CC021F01DC022F089
:1007C000DDC11AF0DEC11BF0DFC11CF0E0C11DF07D
:1007D000F5EC10F01AC000F01BC001F01CC002F0D4
:1007E0001DC003F01F6A206AC80E216E420E226EE1
:1007F00048EC11F0B5EC11F00101D7511B24D76F73
:10080000D8511C20D86F3CD0020EE66EE66ADAECB6
:1008100014F0E552E552086E1C6E38EC10F01AC068
:1008200004F01BC005F01CC006F01DC007F01AC084
:100830001FF01BC020F01CC021F01DC022F0DDC144
:100840001AF0DEC11BF0DFC11CF0E0C11DF0F5ECB9
:1008500010F01AC000F01BC001F01CC002F01DC057
:1008600003F01F6A206AC80E216E420E226E48EC09
:1008700011F0B5EC11F01B500101D75F1C50D85B93
:100880008998899A53EC08F0D7C1E6FFFE0EDBCFBA
:10089000E6FF1FD00BC1E6FF0AC100F0016A00BEEF
:1008A000016800C0E6FF01C0E6FF50EC14F0E5521D
:1008B00011D00AC100F0016A00BE016800C0E6FF65
:1008C00001C0E6FFDAEC14F0E552E552E66E0AC12B
:1008D000E6FF2CDBE552E552E552E7CFD9FF1200E7
:1008E000D9CFE6FFE1CFD9FF040EE126D950FD0FA5
:1008F000E96EFF0EDA20EA6E640EEE184FE1ED505D
:100900004DE1010EE66EE66ADAEC14F0E552E552CE
:10091000046E1C6E38EC10F01AC000F01BC001F021
:100920001CC002F01DC003F01AC0E6FF1BC0E6FFAA
:100930001CC0E6FF1DC0E6FF030EE66EE66ADAECB9
:1009400014F0E552E552E552E7CF03F0E552E7CF68
:1009500002F0E552E7CF01F0E552E7CF00F0096E73
:100960001C6E38EC10F01AC005F01BC006F01CC05D
:1009700007F01DC008F01AC01FF01BC020F01CC0FB
:1009800021F01DC022F000C01AF001C01BF002C00F
:100990001CF003C01DF05FEC10F0EFD0D950FD0F3C
:1009A000E96EFF0EDA20EA6EEE50ED104DE1020E18
:1009B000E66EE66ADAEC14F0E552E552046E1C6E5F
:1009C00038EC10F01AC000F01BC001F01CC002F09F
:1009D0001DC003F01AC0E6FF1BC0E6FF1CC0E6FF07
:1009E0001DC0E6FF030EE66EE66ADAEC14F0E5528F
:1009F000E552E552E7CF03F0E552E7CF02F0E552CA
:100A0000E7CF01F0E552E7CF00F0096E1C6E38EC3D
:100A100010F01AC005F01BC006F01CC007F01DC086
:100A200008F01AC01FF01BC020F01CC021F01DC030
:100A300022F000C01AF001C01BF002C01CF003C07D
:100A40001DF05FEC10F0F0D0FD0EDBCF1BF0FE0EC2
:100A5000DBCF1CF00101D7511B5C086ED8511C582C
:100A6000096E08C01BF01C6E4BEC10F01AC004F0AD
:100A70001BC005F01CC006F01DC007F01F6A206AED
:100A8000C80E216E420E226EF5EC10F01AC000F076
:100A90001BC001F01CC002F01DC003F01AC0E6FF2D
:100AA0001BC0E6FF1CC0E6FF1DC0E6FF83EC14F090
:100AB000E552E552E552E55219C0DEFF1AC0DEFFED
:100AC0001BC0DEFF1CC0DDFFDD52DD52FD0EDBCFA3
:100AD00000F0FE0EDBCF01F00101D8510118E8AEA5
:100AE00002D0013404D00050D75D0150D85957E2EC
:100AF000D9CFE9FFDACFEAFFEECF00F0EECF01F079
:100B0000EECF02F0EFCF03F000C0E6FF01C0E6FF3A
:100B100002C0E6FF03C0E6FF010EE66EE66ADAEC0D
:100B200014F0E552E552E552E7CF03F0E552E7CF86
:100B300002F0E552E7CF01F0E552E7CF00F0086E92
:100B40001C6E38EC10F01AC004F01BC005F01CC07D
:100B500006F01DC007F01AC01FF01BC020F01CC01B
:100B600021F01DC022F000C01AF001C01BF002C02D
:100B70001CF003C01DF048EC11F01AC0DEFF1BC0D2
:100B8000DEFF1CC0DEFF1DC0DDFFDD52DD52899A95
:100B9000140EE66EFCEC14F0E552898856D0D9CFDD
:100BA000E9FFDACFEAFFEECF00F0EECF01F0EECFB3
:100BB00002F0EFCF03F000C0E6FF01C0E6FF02C085
:100BC000E6FF03C0E6FF020EE66EE66ADAEC14F01A
:100BD000E552E552E552E7CF03F0E552E7CF02F0E8
:100BE000E552E7CF01F0E552E7CF00F0086E1C6E4A
:100BF00038EC10F01AC004F01BC005F01CC006F061
:100C00001DC007F01AC01FF01BC020F01CC021F04F
:100C10001DC022F000C01AF001C01BF002C01CF081
:100C200003C01DF048EC11F01AC0DEFF1BC0DEFF50
:100C30001CC0DEFF1DC0DDFFDD52DD528998140EA1
:100C4000E66EFCEC14F0E552898A0101DD6BDE6B87
:100C5000DF6BE06BD9CFE9FFDACFEAFFEECF00F030
:100C6000EECF01F0EECF02F0EFCF03F000C01FF0A7
:100C700001C020F002C021F003C022F0DDC11AF053
:100C8000DEC11BF0DFC11CF0E0C11DF0EDEC11F086
:100C9000010A2EE1140EE66EFCEC14F0E5528950C8
:100CA000200B02E0000E01D0010E006E8950100BE7
:100CB00002E0000E01D0010E00142AE1CD0E1F6EDD
:100CC000CC0E206E216E3D0E226EDDC11AF0DEC10B
:100CD0001BF0DFC11CF0E0C11DF05FEC10F01AC08A
:100CE000DDF11BC0DEF11CC0DFF11DC0E0F1B2D7A9
:100CF0008998899AFD0EDBCFD7F1FE0EDBCFD8F1B4
:100D0000D7C1E6FFFC0EDBCFE6FF10D9E552E55276
:100D1000040EE15C02E2E16AE552E16EE552E7CFE2
:100D2000D9FF1200D388D38AD38CD38E0F0EC16E15
:100D3000806A816A826A926AE00E936E946AF19E7A
:100D4000F28EF28CD08E8150816EF290F180F2861C
:100D5000CD8E9E90C10ECF6E800ECE6E9F909D80E8
:100D6000D59AD59CD596D590D592D5840B0ED76EB5
:100D7000DC0ED66EF194F28A1200948C948EAC8ABA
:100D8000AB8EAB88AC84B886B06A670EAF6E9F8AB4
:100D90009D8A9E8812006FD8770E006E2A0E016E13
:100DA000026A00C0E6FFE66E02C0E6FF640EE66E71
:100DB000010EE66EFEEC12F0036E050EE15E0350CE
:100DC00029D959D8730E006E2A0E016E026A00C02E
:100DD000E6FFE66E02C0E6FF640EE66E010EE66E0A
:100DE000FEEC12F0036E050EE15E035013D943D8FA
:100DF000020EE66EE66A6B0E006E2A0E016E026A45
:100E000000C0E6FFE66E02C0E6FF640EE66E010E6D
:100E1000E66EFEEC12F0036E070EE15E0350FAD8A8
:100E2000640E006E2A0E016E026A00C0E6FFE66ED6
:100E300002C0E6FF640EE66E010EE66EFEEC12F0F6
:100E4000036E050EE15E0350E5D8540E006E2A0EC7
:100E5000016E026A00C0E6FFE66E02C0E6FF640EA5
:100E6000E66E010EE66EFEEC12F0036E050EE15E1C
:100E700003500AEF08F0DC0EE66EFCEC14F0E552CD
:100E80001200D9CFE6FFE1CFD9FF030EE1269E5035
:100E9000200B42E09D50200B3FE0ABA202D0AB986C
:100EA000AB88AE50DF6E7E0EDF5C03E10101DB6BD1
:100EB000DC6B000E0101DB25E96E010EDC21EA6E20
:100EC000DFCFEFFF020EDCAF02D0D89003D0DB5DA6
:100ED000000EDC591DE301C102F0036A01C103F0F9
:100EE000026A02C104F0056A04BE056802500424C7
:100EF000006E03500520016E030E0026000E012235
:100F00000050DB1905E10150DC1902E175EC03F03A
:100F10000101DB2B000EDC23030EE15C02E2E16A3F
:100F2000E552E16EE552E7CFD9FF1200D9CFE6FFD7
:100F3000E1CFD9FF040EE12601017E0E646F656BDF
:100F4000070E666F010E676F686BD9C169F1DAC170
:100F50006AF16B6BFE0EDBCF6CF1FD0EDBCF6DF13A
:100F600000686751682569256A256B256C256D2504
:100F7000005C6E6F65C102F0036A65C103F0026A2E
:100F800066C104F0056A04BE056802500424006EC0
:100F900003500520016E040E0026000E0122020EF1
:100FA00000C0DBFF030E01C0DBFFDE6ADD6ADECFBF
:100FB00000F0DDCF01F0020EDBCF02F0030EDBCF3D
:100FC00003F001500318E8AE02D0033404D00250FD
:100FD000005C0350015814E2ACA2FED7DECFE9FF5B
:100FE000DDCFEAFF640EE926010EEA22EF50E66E3D
:100FF00013EC15F0E552DF2A010ED9E3DB2AD7D72F
:10100000040EE15C02E2E16AE552E16EE552E7CFEF
:10101000D9FF1200D9CFE6FFE1CFD9FF040EE126B8
:10102000640EE66E010EE66E1DEC14F0E552E5521C
:10103000020EF3CFDBFF030EF4CFDBFFDE6ADD6AC7
:10104000DECF00F0DDCF01F0020EDBCF02F0030EA9
:10105000DBCF03F001500318E8AE02D0033404D014
:101060000250005C0350015814E2ACA2FED7DECF60
:10107000E9FFDDCFEAFF640EE926010EEA22EF5018
:10108000E66E13EC15F0E552DF2A010ED9E3DB2AF8
:10109000D7D7040EE15C02E2E16AE552E16EE55267
:1010A000E7CFD9FF12000101800ED81502E0D76BFF
:1010B000D86BD83508E2D7516408000ED85503E242
:1010C000640ED76FD86B1200939A8A9A040EE66E5C
:1010D0004FEC15F0E5528A8A050EE66E8BEC15F0A2
:1010E000E552938A12000101C86B060EE66E8BEC86
:1010F00015F0E55281BA0FD0100EE66E8BEC15F0AC
:10110000E55281AA03D00101010EC86F080EE66EF8
:101110008BEC15F0E5521200D9CFE6FFE1CFD9FFF5
:10112000020EE126010EDB6ADBCF00F0080EE76E4F
:101130000018E8AE02D0E73402D0E750005C30E29D
:1011400081AAFED7060EE66E8BEC15F0E55281BA49
:1011500012D0010EDBCFE6FF070EE552D880E75430
:10116000006E010E005204E0E846FE0B0006FCE1B2
:10117000E81CDF1612D0010EDBCFE6FF070EE552AA
:10118000D880E754006E010E005204E0E846FE0BE2
:101190000006FCE1DF1281BAFED7010EDB2AC4D7BC
:1011A000DF50006E020EE15C02E2E16AE552E16EA0
:1011B0000050E552E7CFD9FF1200F29685DF93DFAA
:1011C0000101C80501E0C5D0A7DF0101CB6FA4DF95
:1011D0000101CC6FA1DF0101C96F9EDF0101CA6F60
:1011E0009BDF0101CE6FCB51CC25C925CA25CE5D31
:1011F00001E0AFD0C951CF6FD06BC9C101F0006A17
:10120000CA510010CF6FC9C1D0F1CB51D36FD46B8D
:10121000CBC101F0006ACC510010D36FCBC1D4F127
:10122000000ED880CF55800ED05504E2FF0ECF17A8
:101230007F0ED017D551D35D136ED451D655146E91
:1012400013C01BF01C6E4BEC10F01AC00FF01BC04B
:1012500010F01CC011F01DC012F01AC0E6FF1BC038
:10126000E6FF1CC0E6FF1DC0E6FF83EC14F0E5526C
:10127000E552E552E55219C00BF01AC00CF01BC044
:101280000DF01CC00EF01F6A206A480E216E420E3F
:10129000226E19C01AF00CC01BF00DC01CF00EC05D
:1012A0001DF0EDEC11F0010A02E1000E01D0010E7B
:1012B0000A6EE66E0101D151CF5D086ED051D25554
:1012C000096E08C01BF01C6E4BEC10F01AC004F045
:1012D0001BC005F01CC006F01DC007F01AC0E6FFD9
:1012E0001BC0E6FF1CC0E6FF1DC0E6FF83EC14F048
:1012F000E552E552E552E552E552E7CF0AF019C052
:1013000000F01AC001F01BC002F01CC003F01F6AFD
:10131000206A216A400E226E19C01AF001C01BF02B
:1013200002C01CF003C01DF0EDEC11F0010A02E157
:10133000000E01D0010E0A100CE0CFC1D1F1D0C1D6
:10134000D2F1D3C1D5F1D4C1D6F1020EE66E03D8E5
:10135000E552F2861200D9CFE6FFE1CFD9FF040EA5
:10136000E12601017E0E646F656B0A0E666F010E49
:10137000676F686BD9C169F1DAC16AF16B6BFE0EF8
:10138000DBCF6CF1C9C16DF1CAC16EF1CBC16FF198
:10139000CCC170F100686751682569256A256B2505
:1013A0006C256D256E256F257025005C716F65C1FC
:1013B00002F0036A65C103F0026A66C104F0056ABF
:1013C00004BE056802500424006E03500520016E1F
:1013D000040E0026000E0122020E00C0DBFF030EE9
:1013E00001C0DBFFDE6ADD6ADECF00F0DDCF01F099
:1013F000020EDBCF02F0030EDBCF03F00150031827
:10140000E8AE02D0033404D00250005C035001580F
:1014100014E2ACA2FED7DECFE9FFDDCFEAFF640E17
:10142000E926010EEA22EF50E66E13EC15F0E552C4
:10143000DF2A010ED9E3DB2AD7D7040EE15C02E2F2
:0E144000E16AE552E16EE552E7CFD9FF1200F6
:02144E0063EC4D
:101450000FF0FB0EDBCFF3FFDB06F35000090AE0D1
:10146000B1EC0FF0FA0E1CEC10F0F3E1011CF1E10D
:10147000010E01D0000E92EF0FF063EC0FF03B0E67
:10148000E12402E3E168E652E16E010EDB6A020E3E
:10149000DB6AF90EDBCFF6FFFA0EDBCFF7FFFB0EB0
:1014A000DBCFF8FF0800F550DF6EDF5002E1B6EF4A
:1014B0000EF0250EDF5C02E0A9EF0EF0030EDB6AF2
:1014C000040EDB6A050EDB6A060EDB6A070EDB6ABA
:1014D000CBEC0EF02D0EDF5C0CE02B0EDF5C09E098
:1014E000200EDF5C06E0230EDF5C03E0300EDF5CE5
:1014F0001AE1DF50300A14E0130A0FE0030A0AE091
:101500000B0A05E0060AE4E1030EDB80E1D7030ED7
:10151000DB82DED7030EDB84DBD7030EDB86D8D776
:10152000030EDB88D5D72A0EDF5C1BE1C7EC0EF07B
:1015300015EC0FF010E0030EDB801B681C68130E27
:10154000DBCF20F0140EDBCF21F0D1EC12F0040E33
:1015500019C0DBFF03D0130EFEEC0EF0CBEC0EF047
:101560000BD0090EDB6A6CEC0FF003E0E0EC0FF03F
:10157000FAD7090EFEEC0EF0030EDBB0DB982E0E50
:10158000DF5C1BE1CBEC0EF02A0EDF5C0BE1C7EC5D
:101590000EF015EC0FF003E1130E50EC0FF0CBEC56
:1015A0000EF00BD0090EDB6A6CEC0FF003E0E0EC00
:1015B0000FF0FAD7090E50EC0FF0680EDF5C07E170
:1015C000CBEC0EF0680EDF5C1DE1030E18D0740E3C
:1015D000DF5C17E07A0EDF5C14E0480EDF5C06E0AB
:1015E000540EDF5C03E05A0EDF5C02E1020E07D00E
:1015F0006C0EDF5C03E06A0EDF5C04E1010EA3EC1D
:101600000FF0C9DBDF506E0A01E17FD31E0A01E152
:1016100092D1200A01E18FD13F0A01E149D11A0A92
:1016200001E146D10D0A01E143D1200A01E140D197
:101630003A0A01E13DD1200A01E13AD1260A01E14D
:1016400035D10D0A01E132D11A0A01E1D9D0200ABF
:101650004AE0300A1FE0460A0EE0250A01E083D383
:10166000D950F90FE96EFF0EDA20EA6E010EEE5E38
:10167000000EEE5AEE5AB1EC0FF0250EE66E95DB39
:1016800003E1011C01E169D3ADEC0FF001E26BD382
:10169000DB2A69D3080EDB6A040EDB50010806E280
:1016A000040EDB0475EC0FF0DB508BDB080EDB5017
:1016B00009E0030EDB50010B05E172DB01E04DD3C5
:1016C000080EDB6A64DBEFCFDFFF25EC10F003E1EF
:1016D000011C01E142D3ADEC0FF001E3DB2A60DB3A
:1016E00001E141D33AD3070EDB5002080FE1F1ECE0
:1016F0000FF0030EB8EC0FF00E0EEECFDBFF0F0E67
:10170000EECFDBFF100EEECFDBFF20D0F70EDBCFEE
:1017100003F0F80EDBCF04F0020E035E000E045A55
:10172000F70E03C0DBFFF80E04C0DBFF03C0E9FFC8
:1017300004C0EAFFA8EC0FF0026A0E0E00C0DBFF47
:101740000F0E01C0DBFF100E02C0DBFF0E0EDBCF61
:10175000E6FF0F0EDBCFE6FF100EDBCFE6FF2BEC34
:1017600014F0E552E552E552130E1AC0DBFF140ED9
:101770001BC0DBFF060EDB5005E0130EECEC0FF098
:1017800001E26ADB10EC10F002E2130E37DBD3EC5F
:101790000FF006E0040EECEC0FF002E2050E2EDB7B
:1017A000030EDBB005D0FCDA01E0D7D2080EDB6A0D
:1017B000090EDB6A0E0EDBCFF6FF0F0EDBCFF7FF55
:1017C000100EDBCFF8FF0800F550DF6EDF5014E09D
:1017D00016EC10F011E225EC10F003E1011C01E120
:1017E000BCD2BBDB01E3DB2A090EDB2AD9500E0F8A
:1017F000E96E000ECBDBE7D7D3DA01E1B4D2ADD28C
:10180000C6DA110EEECFDBFF120EEDCFDBFF110EAD
:10181000DBCFE6FF120EDBCFE6FF1DEC14F0E55246
:10182000E552130EF3CFDBFF140EF4CFDBFF060EF1
:10183000DB5004E0130ED0DB01E20EDB10EC10F005
:1018400002E2130EDBDAAFDB05E0040EC5DB02E2D9
:10185000050ED4DA030EDBB005D0A2DA01E07DD2AA
:10186000080EDB6A090EDB6A110EDBCFE9FF120EF0
:10187000DBCFEAFFEFCFDFFFDF5014E0D7DB12E270
:10188000E4DB03E1011C01E168D267DB01E3DB2A51
:10189000090EDB2A110EDB2ADBCFE9FF120EE8E38B
:1018A000DB2AE6D77DDA01E15ED257D2030EDB8E6A
:1018B000070EDB0410E195DB040E5ADB0A0EEECFB7
:1018C000DBFF0B0EEECFDBFF0C0EEECFDBFF0D0EC2
:1018D000EECFDBFF6CD0070EDB5003082CE1030ECC
:1018E000DBAE0DD0B2DA020E76DAEFCF00F0016A8D
:1018F000026A036A00AE39D00168026835D0F70E7B
:10190000DBCF01F0F80EDBCF02F0020E015E000E1D
:10191000025AF70E01C0DBFFF80E02C0DBFF01C068
:10192000E9FF02C0EAFFEFCF00F00A0E00C0DBFFC4
:101930000B0EDB6A38D0070EDB50020809E1030EFC
:10194000DBAE04D059DB02AE10D00ED055DB0DD08B
:10195000030EDBAE12D079DA020E3DDAF9DA026A52
:10196000036A01AE02D002680368E2DA0C0E02C01C
:10197000DBFF0D0E03C0DBFF1AD0F70EDBCF02F04A
:10198000F80EDBCF03F0020E025E000E035AF70ED4
:1019900002C0DBFFF80E03C0DBFF02C0E9FF03C09B
:1019A000EAFFD6DAC5DA0C0EDB6A0D0EDB6A060E2C
:1019B000DB5005E1010EF36E050EF3CFDBFF150ED4
:1019C000DB6A160EDB6AD950370F006E000EDA2084
:1019D000016E390E00C0DBFF3A0E01C0DBFF380E8E
:1019E000DB6A080EDB6A0A0EAEDADF50780A12E014
:1019F000200A10E0280A0CE0200A0AE03F0A06E06C
:101A00000D0A02E0200A08E1020E05D0080E03D0FC
:101A1000080EDF26100E97DA030EDBBE02D0DB9233
:101A2000DB94DB50800B24E08ADAD890030EEB5075
:101A3000000A08E6000EEE5C000EEE58000EEE58AE
:101A4000000EEE5815E213DA1E681F682068216840
:101A5000E5EC13F00A0E15C0DBFF0B0E16C0DBFF22
:101A60000C0E17C0DBFF0D0E18C0DBFF2D0E08D0CB
:101A7000030EDBA202D02B0E03D0DBA408D0200E75
:101A8000F36E170EF3CFDBFF150EDB2A02D0170E15
:101A9000DB6A050EDB5003E1B7D901E189D02C0EDA
:101AA000006E2B0E016E000E026E070EDBCF03F0F0
:101AB000046A056A066A03C01EF004C01FF005C070
:101AC00020F006C021F0D3D9B6EC14F00050152454
:101AD000F36E01501620F46E02501720F86EF4CF0A
:101AE000F7FFF3CFF6FF0800090EF5CFDBFF580E26
:101AF000DF5C0FE1610EF36E090E7BD90AE3200E65
:101B0000006E090EDBCFE7FF0050E75E090EE7CF5E
:101B1000DBFF070EDBCF00F0016A026A036A0FDA0F
:101B200000C01EF001C01FF002C020F003C021F071
:101B3000EECF19F0EECF1AF0EECF1BF0EFCF1CF086
:101B4000B6EC14F01CC0EDFF1BC0EDFF1AC0EDFF9A
:101B500019C0EFFF390EDBCFE9FFDB063A0EDBCF12
:101B6000EAFF01E2DB06090EDBCFEFFF150EDB2AF1
:101B70004BD995E1030EDBA61DD06F0EDF5C06E1AD
:101B8000C1D918E3150EDB285BDA14D0780EDF5CC0
:101B900009E0580EDF5C06E0620EDF5C03E0420EF7
:101BA000DF5C08E1020EF36E160EF3CFDBFF02D00E
:101BB000150EDB6A030EDB50100B0EE0040EDBCFBC
:101BC00000F0050EDB50D880005406E2060EDB5014
:101BD00003E1040EDB5034DA95D90AE2050EDBCFBF
:101BE000E7FF150EDB50E75E050EE7CFDBFF02D007
:101BF000050EDB6A040EDBCF00F0160E45D9D88047
:101C0000005414E2160EDBCFE6FF150EDBCFE6FF25
:101C1000040EDBCFE6FF050EDB50E552E75CE55234
:101C2000D880E754E552D880E7545FD9030EDB50E3
:101C3000010B0BE1080EDB5008E0B2D801E08DD0BB
:101C4000080EDB50BED8080EDB6A170EDB5007E02B
:101C500088D9170EF1D903E1011C01E17ED0160EDF
:101C6000DB5016E07ED9300EE66E9FD802E1011CF3
:101C700074E077D9DFCFE6FFA3EC13F0E552E5522D
:101C8000E552F4CF01F00001F31C02E1011C65E014
:101C9000050EDBCF00F0160EDB50D880005409E2B1
:101CA000050EDBCFE7FF160EDB50E75E050EE7CF34
:101CB000DBFF300EE66E050ECBD94FE1390EDB2A85
:101CC000DBCFE9FF3A0E01E3DB2ADBCFEAFF090EA7
:101CD000EFCFDBFFDB500EE044D9090EADD902E1B6
:101CE000011C3BE0390EDB2ADBCFE9FF3A0EEDE3C6
:101CF000DB2AEBD755D831E1160EDBCFE6FF080E15
:101D0000C3D8E552E7245DD82ED0070EDB50030A76
:101D10001CE0010A14E0030A07E07BD9DBCFEEFFE9
:101D2000020EDBCFEDFF1FD0F5D8056A03AE02D05F
:101D3000046805682CD8BCD805C0EEFF14D0EAD8DA
:101D400003BE046824D8B4D80ED063D9DBCFEFFF2C
:101D50000AD07BD905E1011C03E1F368F46810D0D7
:101D6000FCD801E3DB2A79D952EF0AF0010EDBCF70
:101D700000F0020EDBCF01F000C0F3FF01C0F4FF62
:101D80003B0EE15C02E2E16AE552E16ECBD029D97B
:101D9000020EB8EF0FF061D90800F550DF6E1200A7
:101DA000200EE66E080E28EF10F0A3EC13F0E552BB
:101DB000E552E552F3CF00F0F4CF01F00001F31C3F
:101DC0001200006E016AD950010F4DD90050EE2665
:101DD0000150ED221200045E000E055AF70E04C0F9
:101DE000DBFFF80E05C0DBFF04C0E9FF05C0EAFF1A
:101DF0001200DBCFF4FFF350F45C1200DB50E76E0F
:101E0000040EE7CFDBFF12000A0EDBCF00F00B0E53
:101E1000DBCF01F00C0EDBCF02F00D0EDBCF03F0B9
:101E200000500110021003101200130EEECFDBFF62
:101E3000140EEDCFDBFF130EDBCF00F0140EDBCF63
:101E400001F00001800E01141200F70EDBCF04F048
:101E5000F80EDBCF05F01200050EDB50E66ED95010
:101E6000130F01D9E552E750EE6EED6A12000A0E2B
:101E7000DBCF19F00B0EDBCF1AF00C0EDBCF1BF013
:101E80000D0EDBCF1CF01200DBCFE6FF150EDBCF13
:101E9000E6FF050EDB50E552E724E552E724120089
:101EA000DB50CED8010EF36E060EF3CFDBFF12002F
:101EB000EE50EFCFEAFFE96E02C0EEFF03C0EEFF87
:101EC00004C0EEFF1200D9CFE6FFDACFE6FFE1CF84
:101ED000D9FFE2CFDAFF1200DFCFE6FFE66A3DEC82
:101EE00015F0E552E552F3501200E76E080EE7CF09
:101EF000DBFF1200EECF00F0EECF01F0EFCF02F0EB
:101F0000036A1200050EDBCF00F0150EDB50D880FF
:101F100000541200010EDBCF02F0020EDBCF03F003
:101F2000046A1200E552E5CFDAFFE7CFD9FF1200CD
:101F30000A0E00C0DBFF0B0E01C0DBFF1200D95000
:101F40000A0F33EF10F0F36E070EF3CFDBFF120032
:101F5000EECF00F0EFCF01F01200010EDB2A020EEF
:101F60001200FC0EDBCFE6FFFD0EDBCFE6FF12001A
:101F7000005E000E015AF70E00C0DBFFF80E01C034
:101F8000DBFF00C0E9FF01C0EAFF1200DA20EA6EC1
:101F9000EF2AEECFF6FF000EEF22EECFF7FFEF2293
:101FA000EECFF8FF1200040EDBCFE6FF130EDB507E
:101FB000E552E75C9ADFDB5004DF060EDB501200CF
:101FC000090EDB500A0DF350DF24D00FE76E090E27
:101FD000E7CFDBFFCBEF0EF0DB50F36E050EF9EF32
:101FE0000EF0F70EDBCF00F0F80EDBCF01F01200A1
:101FF000DFCFE6FFD5EF0EF028DF030EECDE7AEF41
:102000000FF027EC0AF0E552E552E552E5520009DF
:102010001200BDDEEE50EFCFEAFFE96E010E1200B6
:10202000130EDB50F36E040EF9EF0EF0040EDB50CE
:10203000F36E090EF9EF0EF0DBCFE6FFD5EF0EF0F1
:10204000E76E050EE7CFDBFF12008BDFF8EF0FF036
:10205000DBCFE6FF86DF01EF10F0D950F90FE96E14
:10206000FF0EC6EF0FF0E96E000EDA20EA6E1200E6
:10207000249E05D0249E1CAE02D01C6C248E1CC055
:1020800016F0156A286A276A860E176E186A67EFB7
:1020900012F0249E08D0249E1CAE05D01B6C1C1E82
:1020A000E86A1C22248E1CC016F01BC015F0286A9A
:1020B000276A8E0E176E186A67EF12F0227E246A66
:1020C000A3EC12F0BBEC12F024B64BEF12F024A2FA
:1020D0000AD024AA03D024BE4BEF12F024A457EF59
:1020E00012F054EF12F024AA05D024AC57EF12F0EE
:1020F00054EF12F024A00AD024A808D024BE04D0A3
:1021000024A402D060EF12F064EF12F0276A186A7C
:1021100022501D5C266E10E31AC028F01BC015F07B
:102120001CC016F01DC025F01FC01AF020C01BF007
:1021300021C01CF0243A09D01FC028F020C015F09F
:1021400021C016F022C025F0266C249E24BC248ECB
:1021500025C017F024B093EF12F01A0E266093EF0B
:1021600012F0176A1D6A24A408D01A6C1B1E1C1ECC
:102170001D1EE86A1B221C221D2224AC08D0286CDC
:10218000151E161E171EE86A152216221722196A36
:10219000265207E01D341C321B321A321932262E09
:1021A000F9D71A5028261B5015221C5016221D50F4
:1021B000172219C027F0249E17AE0BD0276C281EBB
:1021C000151E161E171EE86A28221522162217222F
:1021D000248E17A006D0D880163215322832273226
:1021E000252A25C017F067EF12F0246AA3EC12F03D
:1021F000BBEC12F024B64BEF12F024A205D024BAA7
:102200004BEF12F052EF12F024BA5EEF12F024A05E
:1022100005D024B84BEF12F05EEF12F024B852EF65
:1022200012F0186A7F0E1D24176EE86A18222250D9
:10223000175EE86A185A1A0E256E1D6A276A286A00
:10224000156A166A1F501A5E20501B5A21501C5ADC
:10225000000E1D5A09E71F501A2620501B2221503C
:102260001C22000E1D2201D0278AD8901A361B3658
:102270001C361D36D8902736283615361636252EAC
:10228000E1D71C501B101A10D8A4278A67EF12F050
:10229000246AA3EC12F0BBEC12F024B64BEF12F060
:1022A00024A205D024B84BEF12F052EF12F024AA6A
:1022B00005D024B04BEF12F052EF12F024B002D050
:1022C00024A802D05EEF12F0186A22501D24176E67
:1022D000E86A18227E0E175EE86A185A276A286A8A
:1022E000156A166A21501C02F4CF16F0F3CF15F0D0
:1022F00020501C02F3502826F4501522000E1622FE
:1023000021501B02F3502826F4501522000E1622ED
:102310001F501C02F3502726F4502822000E1522CD
:10232000162220501B02F3502726F4502822000EBC
:102330001522162221501A02F3502726F450282283
:10234000000E152216221F501B02F4502726000EE5
:1023500028221522162220501A02F4502726000E99
:1023600028221522162267EF12F0246AA3EC12F03D
:1023700024B6BFEF11F024A20ED024B405D07F0EF6
:102380001C6EFF0E1B6E1FD0800E1C6E1B6A1BD0B6
:102390001C6A1B6A18D024B0FBD78F0E1D60EDD7C6
:1023A0007E0E1D64F5D78E0E1D5C05E0D8901C32A4
:1023B0001B321D2AF8D724A406D01B6C1C1EE86A09
:1023C0001C221CAEE5D71200F6EC11F024B6000C6E
:1023D00024B0000C24B4000C010CF6EC11F024B66F
:1023E000000C24B0000C24A4000C010C246AA3EC03
:1023F00012F0BBEC12F024B6120024AE08D024A0D8
:1024000004D024A802D0248012002490120022506C
:102410001D5C0BE121501C5C08E120501B5C05E1B8
:102420001F501A5C02E124801200D8A002D0248E32
:1024300010D01D5022C01DF0226E1C5021C01CF077
:10244000216E1B5020C01BF0206E1A501FC01AF0C6
:102450001F6E22501D5C10E0FF0F09E0249024B491
:1024600003D024AE2484120024AE24941200222A25
:10247000D890213220321F321F501A5E20501B5A32
:1024800021501C5A1CBEEAD7D8901A361B361C366F
:102490001D2EF8D7C8D77F0E1D6EFF0E1C6E1B6E4B
:1024A0001A6E12007F0E24BEFF0E1D6E02D07F0E2C
:1024B0001D6E800E1C6E1B6A1A6AF3D724AE04D000
:1024C000800E1D6E1C6AF7D71D6A1C6AF4D7165061
:1024D000151028102710F8E018BEF0D716BE0CD043
:1024E00017501810EBE0D8902736283615361636D8
:1024F0001706D8A01806F2D71850D4E11728D2E052
:1025000027AE11D07F0E271402E128A00CD0282A74
:10251000E86A1522162207E3D880163215322832CF
:10252000172A1728BFE01750C9E028C01AF015C0B5
:102530001BF016341C6E17301D6E1C321D9E24BEFF
:102540001D8E51EF12F01C361D3602E32484247ECA
:1025500006E124801D6A1C6A1B6A1A6A12001D2883
:1025600003E0D8801C321200D8901C3202E1248291
:102570001200248612002136223602E3248C247EA7
:1025800006E12488226A216A206A1F6A1200222832
:1025900003E0D88021321200D8902132EAE1248A67
:1025A00012001CC028F01BC027F01B502002F4CFE3
:1025B0001AF0F3CF19F01C502102F4CF1CF0F3CF26
:1025C0001BF02002F3501A26F4501B22E86A1C224A
:1025D00027502102F3501A26F4501B22E86A1C22CD
:1025E00021AEF7EF12F027501B5E28501C5A28AE80
:0C25F000000C20501B5E21501C5A000CF7
:0425FC00D9CFE6FF4E
:10260000DACFE6FFE1CFD9FFE2CFDAFFE652E652BA
:10261000E652E652D950F90F006EFF0EDA20016E35
:10262000020E00C0DBFF030E01C0DBFF020EDBCF9A
:10263000E6FF030EDBCFE6FFF90EDBCFE6FFFA0E77
:10264000DBCFE6FFFB0EDBCFE6FFD950FC0FE66EDB
:10265000FF0EDA20E66E3DEC0AF0006E070EE15C3C
:1026600002E2E16AE552E16E0050F3CFDEFFF4CF03
:10267000DDFFFC0EDBCFE9FFFD0EDBCFEAFFEF6AEB
:10268000DECF00F0DDCF01F000C0F3FF01C0F4FFAA
:10269000040EE15C02E2E16AE552E16EE552E5CF4B
:0826A000DAFFE7CFD9FF1200B9
:0826A8001E0EF66E000EF76E27
:1026B000000EF86E01010900F550F06F0900F550A9
:1026C000F16F03E1F06701D03DD00900F550EB6FE9
:1026D0000900F550EC6F0900F550ED6F0900090095
:1026E000F550E96E0900F550EA6E0900090009008D
:1026F000F550EE6F0900F550EF6F09000900F6CFB5
:10270000F2F1F7CFF3F1F8CFF4F1EBC1F6FFECC142
:10271000F7FFEDC1F8FF0101EE5302E1EF5307E0CF
:102720000900F550EE6EEE07F8E2EF07F9D7F2C1B7
:10273000F6FFF3C1F7FFF4C1F8FF0101F007000E47
:06274000F15BBFD712009F
:0A274600D9CFE6FFDACFE6FFE1CFBE
:10275000D9FFE2CFDAFFFB0EDBCF00F0FC0EDBCFC0
:1027600001F00001800E01141AE1FB0EDBCFE9FF3E
:10277000FC0EDBCFEAFFEECFF3FFEDCFF4FFEE2A46
:10278000000EEF22F3CFE9FFF4CFEAFFFD0EDBCF1F
:10279000EFFFEF50016AF36E01C0F4FF10D0FB0EA3
:1027A000DB50FE0806E1FD0EDBCFE6FF7DEC15F009
:1027B00005D0FD0EDBCFE6FF03EC00F0E552E5525D
:0A27C000E5CFDAFFE7CFD9FF1200E2
:0627CA0019501E02F3CFBE
:1027D00015F0F4CF16F01F02F3501626000EF42069
:1027E000176E19502002F3501726000EF420186EB1
:1027F00019502102F35018261A501E02F3501626C3
:10280000F4501722000E18221A501F02F3501726F8
:10281000F45018221A502002F35018261B501E02A2
:10282000F3501726F45018221B501F02F35018269D
:0A2830001C501E02F350182612007F
:06283A00FE0EE3CFE9FFF2
:10284000FF0EE3CFEAFFF36AF46AEE5203E0F34AC5
:10285000F42AFBD71200FF0EE3CFF8FFE552FF0E7C
:10286000E3CFF7FFE552FF0EE3CFF6FFE552E66A4E
:10287000E66AE66A0900F55209E0FD0EE32A05E181
:10288000FE0EE32A02E1FF0EE32AF4D7FD0EE3CFAA
:102890001AF0FE0EE3CF1BF0FF0EE3CF1CF0120088
:1028A000D9CFE6FFDACFE6FFE1CFD9FFE2CFDAFFFB
:1028B000E652DF6AFF0EE76EFC0EDBCF00F0E7505A
:1028C00000160050A96EFB0EDB50A86EA69EA69CBB
:1028D000A684F250800B01E0010EDF6EF29E550ED1
:1028E000A76EAA0EA76EA682A6B2FED7DF50E8B0EA
:1028F000F28EE8A0F29EA694E552E552E5CFDAFF0B
:06290000E7CFD9FF120031
:0A290600D9CFE6FFDACFE6FFE1CFFC
:10291000D9FFE2CFDAFFE652E652D950FD0F006E42
:10292000FF0EDA2000C0DEFFDD6EDECFE9FFDDCF77
:10293000EAFFEF9EFA0EDBCF00F0FB0EDBCF01F0DB
:10294000FC0EDBCF02F0FD0EDBCF03F000C019F070
:1029500001C01AF002C01BF003C01CF0E552E552A2
:0C296000E552E5CFDAFFE7CFD9FF120007
:04296C00186A176A64
:10297000166A156A200EE76ED89019361A361B367D
:102980001C3615361636173618361E50155C1F5075
:102990001658205017582150185809E31E50155E3C
:1029A0001F50165A2050175A2150185A192AE72E2C
:0429B000E4D7120056
:0C29B400D9CFE6FFDACFE6FFE1CFD9FF74
:1029C000E2CFDAFFFF0EE76EFC0EDBCF00F0FD0E6C
:1029D000DBCF01F0E7500016016A0050A96EA69CFB
:1029E000A69EA68000000000A85000D0E552E5CFCA
:0829F000DAFFE7CFD9FF120066
:0829F800FF0EE3503C6EEF0EF0
:102A000001D0F30EE76EE72E03EF15F00C0E3B6ED0
:102A1000E76AE72E09EF15F03B2E08EF15F03C2E84
:062A200001EF15F01200A9
:0A2A2600D9CFE6FFDACFE6FFE1CFDB
:102A3000D9FFE2CFDAFFACAC04D0AC900101F5B322
:102A4000AC80FD0EDB50AD6EE552E5CFDAFFE7CF8F
:042A5000D9FF120098
:0C2A540041544150312C57522C41432C6E
:102A6000434E0D0041544244340D0041544D59250C
:092A7000640D002B2B2B00580013
:062A7A00F36AF46AFF0E8E
:102A8000E124E96EFF0EE220EA6EED6607D02F0E1C
:0E2A9000EF6404D03A0EEF6001D0F32A12007A
:022A9E00FF0E29
:102AA000E3503C6E480E01D04C0EE76EE72EFED789
:0E2AB000E76AE72EFED73C2EF7D70000120093
:022ABE00000E08
:102AC000F36E00EE00F0080E01D81200EA6002D0AA
:0E2AD000EE6AFCD7F350E9601200EE6AFCD704
:022ADE0013EEF5
:102AE00000F023EE00F0F86A249C54EC13F007EC9D
:0A2AF00000F035EC03F0FBD71200F4
:062AFA00FF0EE350ACBA30
:102B000004D0AF6AAB8EAC8A949CACA2FED7AD6EFB
:062B1000F36EF46A1200EE
:0A2B1600FF0EE350E84E120000002D
:0C2B200000D000D000D0E82EFAD7120040
:042B2C0030313233DF
:0D2B300034353637383961626364656600FC
:032B3D0000000095
:102B40000000000000000000000000000000000085
:012B50000084
:020000040030CA
:0100000024DB
:0100010008F6
:0100020038C5
:010003001EDE
:010005008179
:010006008178
:010008000FE8
:01000900C036
:01000A000FE6
:01000B00E014
:01000C000FE4
:01000D0040B2
:00000001FF
